:020000040800F2
:10000000E8040020A1010008CD1600085F140008D4
:10001000C9160008AD0200087D1A000800000000A3
:10002000000000000000000000000000D3160008DF
:10003000B102000800000000D1160008D516000823
:10004000BB010008BB010008BB010008BB010008A0
:10005000BB010008BB010008B3020008BB01000897
:10006000BB010008BB010008BB010008BB01000880
:10007000BB010008BB010008BB010008BB01000870
:10008000BB010008BB010008BB010008BB01000860
:10009000BB010008BB010008BB010008BB01000850
:1000A000BB010008A9170008BB010008BB0100083C
:1000B000BB010008BB010008BB010008BB01000830
:1000C000BB010008BB010008BB010008BB01000820
:1000D000BB010008BB010008BB010008BB01000810
:1000E000BB010008BB010008BB010008BB01000800
:1000F000BB010008BB010008BB010008BB010008F0
:10010000BB010008BB010008BB010008BB010008DF
:10011000BB010008BB010008B9170008BB010008BB
:10012000BB010008BB010008BB010008BB010008BF
:10013000BB010008BB010008BB010008BB010008AF
:10014000BB010008BB010008BB010008BB0100089F
:10015000BB010008BB010008BB010008BB0100088F
:10016000BB010008BB010008BB010008BB0100087F
:10017000BB010008BB010008BB0100080000000033
:10018000BB010008BB010008DFF810D000F07CF8CC
:1001900000480047151B0008AFF30080E80400206A
:1001A0000648804706480047FEE7FEE7FEE7FEE711
:1001B000FEE7FEE7FEE7FEE7FEE7FEE78D17000835
:1001C000890100082DE9F05F0546002092469B4614
:1001D00088460646814640241BE02846414647465D
:1001E000224600F041F853465A46C01A914110D3B6
:1001F00011461846224600F028F82D1A67EB010830
:100200004F4622460120002100F01FF817EB00099D
:100210004E41201EA4F10104DFDC484631462A4647
:100220004346BDE8F09FD2B201E000F8012B491E21
:10023000FBD270470022F6E710B513460A46044683
:100240001946FFF7F0FF204610BD202A04DB203AB4
:1002500000FA02F1002070479140C2F1200320FA19
:1002600003F3194390407047202A04DB203A21FA17
:1002700002F00021704721FA02F3D040C2F12002BF
:100280009140084319467047064C074D06E0E06868
:1002900040F0010394E8070098471034AC42F6D3CD
:1002A000FFF776FF3C1C00085C1C000800BFFEE75F
:1002B000704710B5012000F009F810BD72B600BFFC
:1002C000FEE710B5044601F061FC10BD10B5044610
:1002D00004480068204020B1024804602046FFF72F
:1002E000F0FF10BD143C0140F8B502460B46002556
:1002F000002400200021DCE0012606FA01F51E683A
:1003000006EA0504AC4273D15E68012E08D05E682F
:10031000022E05D05E68112E02D05E68122E13D117
:1003200090684F000326BE40B0434F00DE68BE40D9
:1003300030439060506801268E40B0431E79C6F36A
:1003400000168E4030435060D0684F000326BE40F8
:10035000B0434F009E68BE403043D0605E68022EBE
:1003600002D05E68122E13D1CF0802F1200656F893
:1003700027004E07F70E0F26BE40B0434F07FF0E73
:100380001E69BE403043CF0802F1200646F8270020
:1003900010684F000326BE40B0431E7906F00306E6
:1003A0004F00BE40304310605E6806F08056B6F1E4
:1003B000805F7DD100BF00260096404E366846F42F
:1003C00080463E4F3E603E46366806F480460096C4
:1003D00000BF00BF3A4E8F0856F827008E07370F30
:1003E0000F26BE40B043374EB24202D1002624E071
:1003F0005EE0354EB24201D101261EE0334EB242DC
:1004000001D1022619E0324EB24201D1032614E096
:10041000304EB24201D104260FE02F4EB24201D13C
:1004200005260AE02D4EB24201D1062605E02C4EEB
:10043000B24201D1072600E008268F073F0FBE40D9
:1004400030431F4E8F0846F82700264E3068A043E1
:100450005E6806F48036B6F5803F00D12043214E19
:100460003060361D3068A0435E6806F40036B6F58D
:10047000003F00D120431B4E361D3060361D3068D2
:10048000A0435E6806F48016B6F5801F00D12043B5
:10049000144E08363060361D3068A0435E6806F49E
:1004A0000016B6F5001F00D120430E4E0C3630600A
:1004B000491C1029FFF420AFF8BD00004438024069
:1004C00008380140000002400004024000080240D9
:1004D000000C0240001002400014024000180240CC
:1004E000001C0240003C01400AB1816101E00B04A4
:1004F00083617047014800687047000014000020C5
:1005000003480068034909780844014908607047B6
:10051000140000201C00002010B50D48006840F4B5
:1005200000700B4908600846006840F4806008606D
:100530000846006840F480700860032000F0C6F8A8
:10054000002000F007F800F04BF8002010BD00007C
:10055000003C024070B588B0044600250026002209
:100560002146192000F074F8192000F061F800BF4E
:10057000002001901648006840F00100144908600E
:100580000846006800F00100019000BF00BF02A90A
:1005900003A800F071F900F097F945000D48B5FB8C
:1005A000F0F0461E0C480D49086040F2E7310B4858
:1005B000C160466000210161816000F08DFC20B9BE
:1005C000064800F0DDFC08B070BD0120FBE700002C
:1005D0004438024040420F0000000140A4000020C7
:1005E00008B500BF002000901048006840F480402B
:1005F0000E4908600846006800F48040009000BF83
:1006000000BF00BF00200090081F006840F080502D
:10061000091F08600846006800F08050009000BF85
:1006200000BF072000F052F808BD00004438024027
:1006300001460846002809DB00F01F0301229A400A
:1006400043099B0003F1E023C3F8002100BF70477A
:100650002DE9F05F80460D461646002701F010FA9E
:10066000074639462A46334601F00700C0F1070A1B
:10067000BAF1040F02D94FF0040A01E0C0F1070AF1
:10068000D14600F1040ABAF1070F02D24FF0000A76
:1006900001E0A0F1030AD4464FF0010A0AFA09FA70
:1006A000AAF1010A0AEA020A0AFA0CFA4FF0010B4F
:1006B0000BFA0CFBABF1010B0BEA030B4AEA0B0440
:1006C0002146404601F0E4F9BDE8F09F00BF00F08C
:1006D0000702064B19684FF6FF031940044B0B4302
:1006E00043EA0221014B196000BF70470CED00E0A6
:1006F0000000FA0570B504460D460CB9012070BD26
:100700005848006800F00F00A84209D255490D7002
:100710000846006800F00F00A84201D00120EEE773
:10072000207800F0020002281DD1207800F004009B
:10073000042805D14C48006840F4E0504A4908605C
:10074000207800F00800082805D14748006840F4E8
:100750006040454908604448006820F0F000A16806
:10076000084341490860207800F00100A8B36068A0
:10077000012807D13C4808380068C0F34040B8B9A8
:100780000120BCE76068022802D06068032807D116
:10079000354808380068C0F3406048B90120AEE72A
:1007A000314808380068C0F3400008B90120A6E7C6
:1007B0002D48006820F00300616808432A4908605A
:1007C000FFF798FE064609E0FFF794FE801B41F212
:1007D0008831884202D9032091E707E02248006867
:1007E00000F00C006168B0EB810FEDD11D4800688E
:1007F00000F00F00A84209D91A490D700846006898
:1008000000F00F00A84201D0012078E7207800F026
:100810000400042807D11448006820F4E050E1687F
:10082000084311490860207800F00800082808D122
:100830000D48006820F46040216940EAC1000A497F
:10084000086000F051F808490968C1F30311074A2C
:10085000515CC8400649086006480068FFF77AFE08
:1008600000204CE7003C024008380240241C0008ED
:1008700020000020180000200F2202600D4A12689C
:1008800002F0030242600B4A126802F0F00282603A
:10089000084A126802F4E052C260064A126802F482
:1008A0006042D2080261044A126802F00F020A6034
:1008B0007047000008380240003C024001480068D0
:1008C000704700002000002000B5FFF7F7FF044943
:1008D0000968C1F34231034A515CC84000BD0000C1
:1008E00008380240341C00082DE9F0470024002598
:1008F0000026A1462548006800F00C0020B104281D
:1009000005D008283AD105E0DFF8849039E0DFF817
:10091000849036E01D48001F006800F03F041B482B
:10092000001F006800F4800078B11A481749091FB9
:100930000968C1F38811A0FB01700146224600231B
:100940003846FFF73FFC05460EE011480F49091FE6
:100950000968C1F38811A0FB0170014622460023FB
:100960003846FFF72FFC05460848001F0068C0F313
:100970000140401C4600B5FBF6F902E0DFF810909C
:1009800000BF00BF4846BDE8F087000008380240BD
:100990000024F40000127A00F8B504460CB90120D6
:1009A000F8BD207800F00100002874D0F9480068F4
:1009B00000F00C0004280DD0F648006800F00C0090
:1009C000082813D1F348001F006800F48000B0F538
:1009D000800F0BD1EF4808380068C0F34040002872
:1009E00059D06068002856D10120D9E700BF60685F
:1009F000B0F5803F08D1E7480838006840F48030FF
:100A0000E449083908601EE06068B0F5A02F0DD1F8
:100A1000E0480838006840F48020DE490839086062
:100A20000846006840F4803008600CE0D948083877
:100A3000006820F48030D74908390860084600680B
:100A400020F48020086000BF606890B1FFF752FD7D
:100A5000054606E0FFF74EFD401B642801D9032040
:100A60009EE7CC4808380068C0F340400028F1D029
:100A700011E0FFF73FFD054606E0FFF73BFD401B99
:100A8000642801D903208BE7C24808380068C0F306
:100A900040400028F1D1207800F0020002285FD108
:100AA000BC48006800F00C0058B1BA48006800F07B
:100AB0000C0008281CD1B748001F006800F4800013
:100AC000B0B9B44808380068C0F3400020B1E0680D
:100AD000012801D0012063E7AE480838006820F003
:100AE000F800216940EAC100AA490839086037E0E6
:100AF000E06800B30120A8490860FFF7FBFC054649
:100B000006E0FFF7F7FC401B022801D9032047E766
:100B1000A04808380068C0F340000028F1D09D4884
:100B20000838006820F0F800216940EAC1009949BE
:100B30000839086014E0002097490860FFF7DAFCE4
:100B4000054606E0FFF7D6FC401B022801D903202A
:100B500026E7904808380068C0F340000028F1D12B
:100B6000207800F0080008282CD16069A8B1012085
:100B70008A490860FFF7BEFC054606E0FFF7BAFCAD
:100B8000401B022801D903200AE782486C30006824
:100B9000C0F340000028F1D014E000207F49086035
:100BA000FFF7A8FC054606E0FFF7A4FC401B02285F
:100BB00001D90320F4E677486C300068C0F34000A8
:100BC0000028F1D1207800F00400042870D100271B
:100BD00070483830006800F0805090B900BF0020A5
:100BE00000906C483830006840F0805069493831D6
:100BF00008600846006800F08050009000BF00BF09
:100C000001276748006800F48070B0B96448006844
:100C100040F4807062490860FFF76CFC054606E00E
:100C2000FFF768FC401B022801D90320B8E65C48A6
:100C3000006800F480700028F2D000BFA06801288E
:100C400008D154486830006840F0010051496831CB
:100C500008601DE0A06805280DD14E486830006886
:100C600040F004004B49683108600846006840F0D5
:100C7000010008600CE047486830006820F001007F
:100C80004449683108600846006820F004000860A4
:100C900000BFA068A8B1FFF72DFC054609E0FFF7EB
:100CA00029FC401B41F28831884202D9032077E6B3
:100CB00026E0384868300068C0F340000028EED0D5
:100CC00013E0FFF717FC054608E0FFF713FC401B95
:100CD00041F28831884201D9032061E62D4868300D
:100CE0000068C0F340000028EFD1012F07D1294848
:100CF0003830006820F0805026493831086000BF45
:100D0000A069002845D02348006800F00C0008289E
:100D10005DD0A069022845D100201F490866FFF771
:100D2000E9FB054606E0FFF7E5FB401B022801D979
:100D3000032035E6174808380068C0F340600028F3
:100D4000F1D1D4E907010843616A40EA8111012227
:100D5000A06AC2EB500041EA00412C20005D41EA4C
:100D600000600C49091F086001200B490866FFF765
:100D7000C1FB054606E0FFF7BDFB401B022801D979
:100D800003200DE6034808380068C0F340600028DF
:100D9000F1D03FE00838024000004742800E474251
:100DA0000070004000201C490866FFF7A3FB0546C1
:100DB00006E0FFF79FFB401B022801D90320EFE567
:100DC00016480068C0F340600028F2D122E0A06914
:100DD000012800D1E4E51148001D066806F48001F1
:100DE000E069814214D106F03F01206A81420FD1AF
:100DF00047F6C0703040616A884209D106F440313C
:100E0000A06A814204D106F07061E06A814201D09B
:100E10000120C5E50020C3E500004742003802403C
:100E20007047704730B502460B4600BF92F83C0051
:100E3000012801D1022030BD012082F83C0000BF12
:100E4000022082F83D00106844681068816824F030
:100E500070041868044310684460184D1068A84274
:100E60001BD01068B0F1804F17D0154D1068A84204
:100E700013D0144D1068A8420FD0134D1068A8422B
:100E80000BD0124D1068A84207D0114D1068A8422F
:100E900003D0104D1068A84205D121F08001586898
:100EA000014310688160012082F83D0000BF0020EE
:100EB00082F83C0000BF00BFBDE700000000014019
:100EC0000004004000080040000C00400004014005
:100ED000004001400018004010B504460CB9012044
:100EE00010BD94F83D0028B9002084F83C0020464D
:100EF00000F00CF8022084F83D00211D206800F06D
:100F000063FC012084F83D000020E9E738B5044681
:100F100018492068884218D100BF00200090164868
:100F2000006840F01000144908600846006800F0AE
:100F30001000009000BF00BF002211463620FFF7CE
:100F400087FB3620FFF774FB13E00C4920688842CA
:100F50000FD100BF002000900748006840F4807067
:100F6000054908600846006800F48070009000BFE2
:100F700000BF38BD00100040403802400020004053
:100F800001460868C06840F001000B68D860086836
:100F9000806800F00702062A05D00868006840F063
:100FA00001000B6818600020704701460868C0689F
:100FB00020F001000A68D06000BF0868006A41F2B2
:100FC0001112104050B90868006A9210104028B9F8
:100FD0000868006820F001000A68106000BF002067
:100FE0007047704710B5044620680069C0F34000A0
:100FF000D8B12068C068C0F34000B0B16FF0020003
:1010000021680861012020772068806900F00300D2
:1010100018B12046FFF7E5FF05E0204600F0DEF8B6
:10102000204600F07BF90020207720680069C0F39B
:101030008000D8B12068C068C0F38000B0B16FF004
:10104000040021680861022020772068806900F48C
:10105000407018B12046FFF7C4FF05E0204600F0BD
:10106000BDF8204600F05AF900202077206800697A
:10107000C0F3C000D8B12068C068C0F3C000B0B1F0
:101080006FF0080021680861042020772068C0699B
:1010900000F0030018B12046FFF7A3FF05E020464B
:1010A00000F09CF8204600F039F9002020772068F5
:1010B0000069C0F30010D8B12068C068C0F3001008
:1010C000B0B16FF010002168086108202077206817
:1010D000C06900F4407018B12046FFF782FF05E0B8
:1010E000204600F07BF8204600F018F90020207719
:1010F0002068006900F0010058B12068C06800F065
:10110000010030B16FF0010021680861204600F055
:1011100033F920680069C0F3C01058B12068C06876
:10112000C0F3C01030B16FF0800021680861204624
:10113000FFF776FE20680069C0F3801058B1206880
:10114000C068C0F3801030B16FF0400021680861C2
:10115000204600F083F920680069C0F3401058B1C0
:101160002068C068C0F3401030B16FF020002168E3
:1011700008612046FFF755FE10BD000010B586B08F
:101180000446142101A8FFF755F811492068884248
:101190001CD100BF002000900E48006840F0010004
:1011A0000C4908600846006800F00100009000BF8C
:1011B00000BF802001900220029000200390049044
:1011C0000920059001A90448FFF78EF806B010BD6C
:1011D000002000403038024000000240704770B5E7
:1011E00004460D46164600BF94F83C00012801D184
:1011F000022070BD012084F83C0000BF022084F86A
:101200003D0036B1042E1BD0082E31D00C2E5ED1FD
:1012100045E02946206800F055FB2068806940F0D1
:101220000800216888612068806920F00400216836
:10123000886120688069296908432168886147E0DE
:101240002946206800F076FB2068806940F4006041
:10125000216888612068806920F480602168886145
:1012600020688069296940EA0120216888612FE0AF
:101270002946206800F09CFB2068C06940F0080007
:101280002168C8612068C06920F004002168C86135
:101290002068C069296908432168C86118E02946A7
:1012A000206800F0C1FB2068C06940F4006021683C
:1012B000C8612068C06920F480602168C861206826
:1012C000C069296940EA01202168C86100E000BFC7
:1012D00000BF012084F83D0000BF002084F83C00DE
:1012E00000BF00BF85E710B504460CB9012010BD52
:1012F00094F83D0028B9002084F83C00204600F016
:101300000CF8022084F83D00211D206800F05CFAF2
:10131000012084F83D000020E9E770477047000095
:1013200070B504460E4601223146206800F0B8FA36
:101330000F492068884203D00E492068884201D1B5
:10134000012000E0002028B12068406C40F40040FB
:10135000216848642068806800F00705062D05D0E4
:101360002068006840F0010021680860002070BD1E
:10137000000001400004014010B5044631492068D6
:10138000884258D130480088012817D10122010332
:101390002E48FFF7A9F800224FF400512B48FFF721
:1013A000A3F8012000F020FC03202749088041F227
:1013B000883000F011FC00F0D9FB3CE022480088A6
:1013C000022816D10022C1022048FFF78DF8012221
:1013D00051031E48FFF788F8022000F005FC0320A7
:1013E0001949088041F2883000F0F6FB00F0BEFB9E
:1013F00021E000224FF480511448FFF775F80022D5
:101400004FF400511148FFF76FF8002010490968A8
:10141000486300224FF400410C48FFF765F80020B4
:10142000094908804FF4967000F0D6FB00F09EFB4F
:101430000848FFF7BAFD08492068884201D1FFF744
:101440005FF810BD0010004000000020000C0240BA
:10145000640000202400002000000140704700BF0D
:10146000FEE7000000B587B0142102A8FEF7E2FEF7
:1014700000BF002001905F48006840F010005D4907
:1014800008600846006800F01000019000BF00BF2F
:1014900000BF002001900846006840F0040008608A
:1014A0000846006800F00400019000BF00BF00BFC4
:1014B000002001900846006840F08000086008465F
:1014C000006800F08000019000BF00BF00BF002056
:1014D00001900846006840F0010008600846006876
:1014E00000F00100019000BF00BF00BF002001908C
:1014F0000846006840F0020008600846006800F0F6
:101500000200019000BF00BF00BF0020019008460C
:10151000006840F0080008600846006800F0080015
:10152000019000BF00BF00224FF470413248FEF727
:10153000DBFF4FF6FF700290032003900020049021
:1015400002A92E48FEF7D0FE43F6FF70029003205A
:1015500003900020049002A92948FEF7C5FE01204F
:101560000290284803900020049002A92648FEF724
:10157000BBFE49F67E700290032003900020049089
:1015800002A92148FEF7B0FE4FF6F3700290032047
:1015900003900020049002A91C48FEF7A5FE042039
:1015A000029000200390049002A91848FEF79CFEC8
:1015B00040F6FF700290032003900020049002A9DF
:1015C0000D48FEF791FE4FF4704002900120039009
:1015D00000200490059002A90748FEF785FE00222E
:1015E00011460620FFF734F80620FFF721F807B070
:1015F00000BD000030380240000C024000100240E4
:1016000000080240000011100000024000040240E7
:1016100000B587B01C216846FEF70CFE1548164938
:101620000860312048600021134881606321C16057
:10163000002101618161FFF74FFC08B1FEF73EFE1A
:101640000D48FFF750FE08B1FEF738FE602000900D
:101650000020019002900490002269460648FFF79E
:10166000BEFD08B1FEF72AFE0348FFF787FD07B06D
:1016700000BD000000200040640000201CB50020D8
:10168000009001900E480F49086041F28730486091
:1016900000210C48816040F6B731C16000218161B2
:1016A000FFF71AFC08B1FEF709FE00200090019038
:1016B00069460448FFF7B6FB08B1FEF7FFFD1CBD05
:1016C000001000402400002000BFFEE700BFFEE73E
:1016D000704770477047000000B593B0302107A8ED
:1016E000FEF7A8FD142102A8FEF7A4FD00BF00200C
:1016F00001902448006840F0805022490860084664
:10170000006800F08050019000BF00BF00BF0020C3
:1017100001901D48006840F480401B49086008465D
:10172000006800F48040019000BF00BF01200790D6
:101730000004089002200D9041050E9104210F91A4
:1017400064211091022111910721129107A8FFF73E
:1017500023F908B1FEF7B2FD0F200290022003909A
:10176000002004904FF4A05005904FF48050069054
:10177000032102A8FEF7BEFF08B1FEF79FFD13B0DC
:1017800000BD00004038024000700040054800687D
:1017900040F47000034908604FF00060014980394F
:1017A0000860704788ED00E010B50248FFF71AFCAA
:1017B00010BD0000A400002010B50248FFF712FC85
:1017C00010BD00002400002010B50268294B98428B
:1017D0000ED0B0F1804F0BD0274B984208D0274B4A
:1017E000984205D0264B984202D0264B984203D10E
:1017F00022F070024B681A431E4B984220D0B0F181
:10180000804F1DD01C4B98421AD01C4B984217D0C9
:101810001B4B984214D01B4B984211D01A4B984244
:101820000ED01A4B98420BD0194B984208D0194B46
:10183000984205D0184B984202D0184B984203D1D9
:1018400022F44072CB681A4322F080034C6943EAC9
:10185000040202608B68C3620B688362054B984286
:1018600002D0084B984201D10B6903630123436105
:1018700010BD0000000001400004004000080040CE
:10188000000C0040000401400040014000440140C1
:101890000048014000180040001C004000200040AB
:1018A00030B501F01F05012404FA05F3046A9C43D6
:1018B0000462046A01F01F0502FA05F52C43046274
:1018C00030BD000030B5056A25F001050562026AE9
:1018D0004368846924F0700424F003040D682C43E9
:1018E00022F002028D682A43104DA84200D103E085
:1018F0000F4DA84206D100BF22F00802CD682A434E
:1019000022F00402094DA84202D0094DA84207D195
:1019100023F4807323F400734D692B438D692B43AB
:10192000436084614D684563026230BD0000014040
:101930000004014030B5056A25F010050562026A11
:101940004368846924F4E04424F440740D6844EA54
:10195000052422F020028D6842EA0512124DA842A9
:1019600000D103E0114DA84207D100BF22F0800250
:10197000CD6842EA051222F040020B4DA84202D087
:101980000A4DA84209D123F4806323F400634D6912
:1019900043EA85038D6943EA8503436084614D68AA
:1019A0008563026230BD0000000001400004014078
:1019B00030B5056A25F480750562026A4368C4691A
:1019C00024F0700424F003040D682C4322F4007208
:1019D0008D6842EA0522124DA84200D103E0114D64
:1019E000A84207D100BF22F40062CD6842EA052276
:1019F00022F480620A4DA84202D00A4DA84209D1C1
:101A000023F4805323F400534D6943EA05138D6991
:101A100043EA05134360C4614D68C563026230BD8B
:101A2000000001400004014030B5056A25F48055EE
:101A30000562036A4468C26922F4E04222F44072FB
:101A40000D6842EA052223F400538D6843EA05330A
:101A5000084DA84202D0084DA84204D124F4804485
:101A60004D6944EA85144460C2614D6805640362AF
:101A700030BD0000000001400004014000BFFEE74F
:101A800002480068C0F30220704700000CED00E03F
:101A900010B5002804DB0A07130E054A135406E0AC
:101AA0000A07140E034A00F00F031B1FD45410BD85
:101AB00000E400E018ED00E002E008C8121F08C1D1
:101AC000002AFAD170477047002001E001C1121FBF
:101AD000002AFBD1704700000148006870470000F1
:101AE0000400002010B54B20044909684863012216
:101AF000D1030348FEF7F8FC10BD0000640000208D
:101B0000000C02404B2002490968486370470000FE
:101B100064000020FEF700FDFFF7DEFDFFF7A2FCEA
:101B2000FFF7ACFDFFF774FD0D4800684FF68071BC
:101B300008400B49086000210A48FFF7F1FB4FF409
:101B4000967000F049F8322000F016F806E0FFF732
:101B5000C3FF054931F8100001490860F7E70000AC
:101B60001408024064000020080000200020014901
:101B7000486270470010004000EB80014904090CE6
:101B8000014A1180704700000200002010B50E4885
:101B9000008848B901200C49088000200B494862A0
:101BA0000B48FFF7EDF90DE007480088012809D13F
:101BB0000648406A07490988884200D210BD0220C1
:101BC0000149088000BFF9E7000000200010004034
:101BD000240000200200002000EB80014900014A9F
:101BE000D16270470010004010B50446012C0AD1A4
:101BF0000B480068042806D0FFF784FF08480068F7
:101C0000401C07490860022C09D10548006830B122
:101C1000FFF768FF02480068401E0149086010BDD8
:101C20000400002000000000000000000102030486
:101C30000607080900000000010203045C1C0008FC
:101C40000000002024000000B81A0008801C0008D2
:101C500024000020C4040000C81A00080000F40199
:101C60000000000040FF79FFA4FF30FF19FF0000D3
:101C70000000000010000000010000000024F4003B
:040000050800018965
:00000001FF
