:020000040800F2
:1000000098040020A1010008891400088712000844
:1000100085140008AD0200085D160008000000000D
:100020000000000000000000000000008F14000825
:10003000B1020008000000008D14000891140008AF
:10004000BB010008BB010008BB010008BB010008A0
:10005000BB010008BB010008B3020008BB01000897
:10006000BB010008BB010008BB010008BB01000880
:10007000BB010008BB010008BB010008BB01000870
:10008000BB010008BB010008BB010008BB01000860
:10009000BB010008BB010008BB010008BB01000850
:1000A000BB01000865150008BB010008BB01000882
:1000B000BB010008BB010008BB010008BB01000830
:1000C000BB010008BB010008BB010008BB01000820
:1000D000BB010008BB010008BB010008BB01000810
:1000E000BB010008BB010008BB010008BB01000800
:1000F000BB010008BB010008BB010008BB010008F0
:10010000BB010008BB010008BB010008BB010008DF
:10011000BB010008BB01000875150008BB01000801
:10012000BB010008BB010008BB010008BB010008BF
:10013000BB010008BB010008BB010008BB010008AF
:10014000BB010008BB010008BB010008BB0100089F
:10015000BB010008BB010008BB010008BB0100088F
:10016000BB010008BB010008BB010008BB0100087F
:10017000BB010008BB010008BB0100080000000033
:10018000BB010008BB010008DFF810D000F07CF8CC
:1001900000480047FD160008AFF3008098040020D7
:1001A0000648804706480047FEE7FEE7FEE7FEE711
:1001B000FEE7FEE7FEE7FEE7FEE7FEE7491500087B
:1001C000890100082DE9F05F0546002092469B4614
:1001D00088460646814640241BE02846414647465D
:1001E000224600F041F853465A46C01A914110D3B6
:1001F00011461846224600F028F82D1A67EB010830
:100200004F4622460120002100F01FF817EB00099D
:100210004E41201EA4F10104DFDC484631462A4647
:100220004346BDE8F09FD2B201E000F8012B491E21
:10023000FBD270470022F6E710B513460A46044683
:100240001946FFF7F0FF204610BD202A04DB203AB4
:1002500000FA02F1002070479140C2F1200320FA19
:1002600003F3194390407047202A04DB203A21FA17
:1002700002F00021704721FA02F3D040C2F12002BF
:100280009140084319467047064C074D06E0E06868
:1002900040F0010394E8070098471034AC42F6D3CD
:1002A000FFF776FFB8170008D817000800BFFEE771
:1002B000704710B5012000F01FF810BD72B600BFE6
:1002C000FEE7000070B5044600F02AF90646254610
:1002D000681C10B104480078054400BF00F020F904
:1002E000801BA842FAD370BD0C00002010B5044654
:1002F00001F028FA10BD000010B50446044800685B
:10030000204020B1024804602046FFF7EFFF10BDF7
:10031000143C0140F8B502460B460025002400209D
:100320000021DCE0012606FA01F51E6806EA050454
:10033000AC4273D15E68012E08D05E68022E05D0F3
:100340005E68112E02D05E68122E13D190684F00A5
:100350000326BE40B0434F00DE68BE40304390608D
:10036000506801268E40B0431E79C6F300168E40B9
:1003700030435060D0684F000326BE40B0434F006A
:100380009E68BE403043D0605E68022E02D05E6838
:10039000122E13D1CF0802F1200656F827004E077F
:1003A000F70E0F26BE40B0434F07FF0E1E69BE403A
:1003B0003043CF0802F1200646F8270010684F00AE
:1003C0000326BE40B0431E7906F003064F00BE4030
:1003D000304310605E6806F08056B6F1805F7DD1D4
:1003E00000BF00260096404E366846F480463E4FD9
:1003F0003E603E46366806F48046009600BF00BF69
:100400003A4E8F0856F827008E07370F0F26BE404A
:10041000B043374EB24202D1002624E05EE0354EB2
:10042000B24201D101261EE0334EB24201D1022672
:1004300019E0324EB24201D1032614E0304EB242EE
:1004400001D104260FE02F4EB24201D105260AE069
:100450002D4EB24201D1062605E02C4EB24201D10A
:10046000072600E008268F073F0FBE4030431F4E8F
:100470008F0846F82700264E3068A0435E6806F4D1
:100480008036B6F5803F00D12043214E3060361DC6
:100490003068A0435E6806F40036B6F5003F00D130
:1004A00020431B4E361D3060361D3068A0435E6809
:1004B00006F48016B6F5801F00D12043144E08368E
:1004C0003060361D3068A0435E6806F40016B6F54D
:1004D000001F00D120430E4E0C363060491C1029FD
:1004E000FFF420AFF8BD0000443802400838014056
:1004F000000002400004024000080240000C0240DC
:10050000001002400014024000180240001C02408B
:10051000003C01400AB1816101E00B048361704736
:10052000014800687047000004000020034800688C
:100530000349097808440149086070470400002015
:100540000C00002010B50D48006840F400700B4905
:1005500008600846006840F480600860084600684B
:1005600040F480700860032000F0E8F8002000F0FC
:1005700007F800F04BF8002010BD0000003C0240DE
:1005800070B588B0044600250026002221461920B7
:1005900000F096F8192000F083F800BF00200190C9
:1005A0001648006840F001001449086008460068D9
:1005B00000F00100019000BF00BF02A903A800F0F5
:1005C00093F900F0B9F945000D48B5FBF0F0461E6F
:1005D0000C480D49086040F2E7310B48C1604660A5
:1005E00000210161816000F0AFFC20B9064800F0F5
:1005F000E9FC08B070BD0120FBE700004438024070
:1006000040420F00000001405400002008B500BF28
:10061000002000901048006840F480400E490860B7
:100620000846006800F48040009000BF00BF00BF93
:1006300000200090081F006840F08050091F0860EB
:100640000846006800F08050009000BF00BF0720FF
:1006500000F074F808BD00004438024010B50146AF
:100660000846002817DB00F01F0301229A400B4BBD
:10067000440943F8242000BF00BF00BFBFF34F8FE1
:1006800000BF00BF00BF00BF00BF00BFBFF36F8F40
:1006900000BF00BF00BF00BF10BD000080E100E050
:1006A00001460846002809DB00F01F0301229A409A
:1006B00043099B0003F1E023C3F8002100BF70470A
:1006C0002DE9F05F80460D461646002700F0C8FF72
:1006D000074639462A46334601F00700C0F1070AAB
:1006E000BAF1040F02D94FF0040A01E0C0F1070A81
:1006F000D14600F1040ABAF1070F02D24FF0000A06
:1007000001E0A0F1030AD4464FF0010A0AFA09FAFF
:10071000AAF1010A0AEA020A0AFA0CFA4FF0010BDE
:100720000BFA0CFBABF1010B0BEA030B4AEA0B04CF
:100730002146404600F09CFFBDE8F09F00BF00F05E
:100740000702064B19684FF6FF031940044B0B4391
:1007500043EA0221014B196000BF70470CED00E035
:100760000000FA0570B504460D460CB9012070BDB5
:100770005848006800F00F00A84209D255490D7092
:100780000846006800F00F00A84201D00120EEE703
:10079000207800F0020002281DD1207800F004002B
:1007A000042805D14C48006840F4E0504A490860EC
:1007B000207800F00800082805D14748006840F478
:1007C0006040454908604448006820F0F000A16896
:1007D000084341490860207800F00100A8B3606830
:1007E000012807D13C4808380068C0F34040B8B938
:1007F0000120BCE76068022802D06068032807D1A6
:10080000354808380068C0F3406048B90120AEE7B9
:10081000314808380068C0F3400008B90120A6E755
:100820002D48006820F00300616808432A490860E9
:10083000FFF776FE064609E0FFF772FE801B41F2E5
:100840008831884202D9032091E707E022480068F6
:1008500000F00C006168B0EB810FEDD11D4800681D
:1008600000F00F00A84209D91A490D700846006827
:1008700000F00F00A84201D0012078E7207800F0B6
:100880000400042807D11448006820F4E050E1680F
:10089000084311490860207800F00800082808D1B2
:1008A0000D48006820F46040216940EAC1000A490F
:1008B000086000F051F808490968C1F30311074ABC
:1008C000515CC8400649086006480068FFF758FEBA
:1008D00000204CE7003C024008380240A017000806
:1008E00010000020080000200F2202600D4A12684C
:1008F00002F0030242600B4A126802F0F0028260CA
:10090000084A126802F4E052C260064A126802F411
:100910006042D2080261044A126802F00F020A60C3
:100920007047000008380240003C0240014800685F
:10093000704700001000002000B5FFF7F7FF0449E2
:100940000968C1F34231034A515CC84000BD000050
:1009500008380240B01700082DE9F04700240025B0
:100960000026A1462548006800F00C0020B10428AC
:1009700005D008283AD105E0DFF8849039E0DFF8A7
:10098000849036E01D48001F006800F03F041B48BB
:10099000001F006800F4800078B11A481749091F49
:1009A0000968C1F38811A0FB0170014622460023AB
:1009B0003846FFF707FC05460EE011480F49091FAE
:1009C0000968C1F38811A0FB01700146224600238B
:1009D0003846FFF7F7FB05460848001F0068C0F3DC
:1009E0000140401C4600B5FBF6F902E0DFF810902C
:1009F00000BF00BF4846BDE8F0870000083802404D
:100A00000024F40000127A00F8B504460CB9012065
:100A1000F8BD207800F00100002874D0F948006883
:100A200000F00C0004280DD0F648006800F00C001F
:100A3000082813D1F348001F006800F48000B0F5C7
:100A4000800F0BD1EF4808380068C0F34040002801
:100A500059D06068002856D10120D9E700BF6068EE
:100A6000B0F5803F08D1E7480838006840F480308E
:100A7000E449083908601EE06068B0F5A02F0DD188
:100A8000E0480838006840F48020DE4908390860F2
:100A90000846006840F4803008600CE0D948083807
:100AA000006820F48030D74908390860084600689B
:100AB00020F48020086000BF606890B1FFF730FD2F
:100AC000054606E0FFF72CFD401B642801D90320F2
:100AD0009EE7CC4808380068C0F340400028F1D0B9
:100AE00011E0FFF71DFD054606E0FFF719FD401B6D
:100AF000642801D903208BE7C24808380068C0F396
:100B000040400028F1D1207800F0020002285FD197
:100B1000BC48006800F00C0058B1BA48006800F00A
:100B20000C0008281CD1B748001F006800F48000A2
:100B3000B0B9B44808380068C0F3400020B1E0689C
:100B4000012801D0012063E7AE480838006820F092
:100B5000F800216940EAC100AA490839086037E075
:100B6000E06800B30120A8490860FFF7D9FC0546FA
:100B700006E0FFF7D5FC401B022801D9032047E718
:100B8000A04808380068C0F340000028F1D09D4814
:100B90000838006820F0F800216940EAC10099494E
:100BA0000839086014E0002097490860FFF7B8FC96
:100BB000054606E0FFF7B4FC401B022801D90320DC
:100BC00026E7904808380068C0F340000028F1D1BB
:100BD000207800F0080008282CD16069A8B1012015
:100BE0008A490860FFF79CFC054606E0FFF798FC81
:100BF000401B022801D903200AE782486C300068B4
:100C0000C0F340000028F1D014E000207F490860C4
:100C1000FFF786FC054606E0FFF782FC401B022832
:100C200001D90320F4E677486C300068C0F3400037
:100C30000028F1D1207800F00400042870D10027AA
:100C400070483830006800F0805090B900BF002034
:100C500000906C483830006840F080506949383165
:100C600008600846006800F08050009000BF00BF98
:100C700001276748006800F48070B0B964480068D4
:100C800040F4807062490860FFF74AFC054606E0C0
:100C9000FFF746FC401B022801D90320B8E65C4858
:100CA000006800F480700028F2D000BFA06801281E
:100CB00008D154486830006840F00100514968315B
:100CC00008601DE0A06805280DD14E486830006816
:100CD00040F004004B49683108600846006840F065
:100CE000010008600CE047486830006820F001000F
:100CF0004449683108600846006820F00400086034
:100D000000BFA068A8B1FFF70BFC054609E0FFF79C
:100D100007FC401B41F28831884202D9032077E664
:100D200026E0384868300068C0F340000028EED064
:100D300013E0FFF7F5FB054608E0FFF7F1FB401B6A
:100D400041F28831884201D9032061E62D4868309C
:100D50000068C0F340000028EFD1012F07D12948D7
:100D60003830006820F0805026493831086000BFD4
:100D7000A069002845D02348006800F00C0008282E
:100D80005DD0A069022845D100201F490866FFF701
:100D9000C7FB054606E0FFF7C3FB401B022801D94D
:100DA000032035E6174808380068C0F34060002883
:100DB000F1D1D4E907010843616A40EA81110122B7
:100DC000A06AC2EB500041EA00412C20005D41EADC
:100DD00000600C49091F086001200B490866FFF7F5
:100DE0009FFB054606E0FFF79BFB401B022801D94D
:100DF00003200DE6034808380068C0F3406000286F
:100E0000F1D03FE00838024000004742800E4742E0
:100E10000070004000201C490866FFF781FB054672
:100E200006E0FFF77DFB401B022801D90320EFE518
:100E300016480068C0F340600028F2D122E0A069A3
:100E4000012800D1E4E51148001D066806F4800180
:100E5000E069814214D106F03F01206A81420FD13E
:100E600047F6C0703040616A884209D106F44031CB
:100E7000A06A814204D106F07061E06A814201D02B
:100E80000120C5E50020C3E50000474200380240CC
:100E90007047704730B502460B4600BF92F83C00E1
:100EA000012801D1022030BD012082F83C0000BFA2
:100EB000022082F83D00106844681068816824F0C0
:100EC00070041868044310684460184D1068A84204
:100ED0001BD01068B0F1804F17D0154D1068A84294
:100EE00013D0144D1068A8420FD0134D1068A842BB
:100EF0000BD0124D1068A84207D0114D1068A842BF
:100F000003D0104D1068A84205D121F08001586827
:100F1000014310688160012082F83D0000BF00207D
:100F200082F83C0000BF00BFBDE7000000000140A8
:100F30000004004000080040000C00400004014094
:100F4000004001400018004010B504460CB90120D3
:100F500010BD94F83D0028B9002084F83C002046DC
:100F600000F00CF8022084F83D00211D206800F0FC
:100F700009FB012084F83D000020E9E738B504466C
:100F80000E492068884217D100BF002000900C480D
:100F9000006840F010000A4908600846006800F048
:100FA0001000009000BF00BF002211463620FFF75E
:100FB00087FB3620FFF774FB38BD000000100040AF
:100FC0004038024001460868C06840F001000B68E4
:100FD000D8600868806800F00702062A05D0086813
:100FE000006840F001000B6818600020704701465F
:100FF0000868C06820F001000A68D06000BF086877
:10100000006A41F21112104050B90868006A92104B
:10101000104028B90868006820F001000A681060D4
:1010200000BF00207047704710B504462068006973
:10103000C0F34000D8B12068C068C0F34000B0B130
:101040006FF0020021680861012020772068806924
:1010500000F0030018B12046FFF7E5FF05E0204649
:1010600000F0ADF8204600F0ABF8002020772068B3
:101070000069C0F38000D8B12068C068C0F3800068
:10108000B0B16FF004002168086102202077206869
:10109000806900F4407018B12046FFF7C4FF05E0F6
:1010A000204600F08CF8204600F08AF800202077D7
:1010B00020680069C0F3C000D8B12068C068C0F3E0
:1010C000C000B0B16FF008002168086104202077EB
:1010D0002068C06900F0030018B12046FFF7A3FFA5
:1010E00005E0204600F06BF8204600F069F800208B
:1010F000207720680069C0F30010D8B12068C0686C
:10110000C0F30010B0B16FF0100021680861082032
:1011100020772068C06900F4407018B12046FFF7BE
:1011200082FF05E0204600F04AF8204600F048F82B
:10113000002020772068006900F0010058B1206885
:10114000C06800F0010030B16FF001002168086153
:10115000204600F037F820680069C0F3C01058B18D
:101160002068C068C0F3C01030B16FF08000216803
:1011700008612046FFF78CFE20680069C0F38010EC
:1011800058B12068C068C0F3801030B16FF04000E3
:1011900021680861204600F075F820680069C0F3F6
:1011A000401058B12068C068C0F3401030B16FF0F3
:1011B0002000216808612046FFF76BFE10BD7047D4
:1011C0007047000010B5044629492068884248D17C
:1011D00028480088012814D1012201032648FFF77E
:1011E00099F900224FF400512348FFF793F90320A7
:1011F0002049088041F2883000F0CAFA00F092FAE3
:101200002FE01C480088022813D10022C1021A488E
:10121000FFF780F9012251031748FFF77BF90320FC
:101220001449088041F2883000F0B2FA00F07AFAEE
:1012300017E000224FF480510F48FFF76BF90022AE
:101240004FF400510C48FFF765F900200949088068
:101250004FF4967000F09CFA00F064FA0748FFF72C
:10126000C6FE07492068884201D1FFF75FF910BD2B
:101270000010004000000020000C0240140000207C
:1012800000000140704700BFFEE7000000B587B0D6
:10129000142102A8FEF7CEFF00BF002001905F4896
:1012A000006840F010005D4908600846006800F0E2
:1012B0001000019000BF00BF00BF00200190084651
:1012C000006840F0040008600846006800F0040070
:1012D000019000BF00BF00BF0020019008460068D9
:1012E00040F0800008600846006800F0800001902F
:1012F00000BF00BF00BF002001900846006840F01A
:10130000010008600846006800F00100019000BF7D
:1013100000BF00BF002001900846006840F00200B6
:1013200008600846006800F00200019000BF00BF9E
:1013300000BF002001900846006840F008000860E7
:101340000846006800F00800019000BF00BF0022BE
:101350004FF470413248FFF7DDF84FF6FF7002900E
:10136000032003900020049002A92E48FEF7D2FF2C
:1013700043F6FF700290032003900020049002A91E
:101380002948FEF7C7FF012002902848039000205B
:10139000049002A92648FEF7BDFF49F6FE700290B0
:1013A000032003900020049002A92148FEF7B2FF19
:1013B0004FF6F3700290032003900020049002A9DE
:1013C0001C48FEF7A7FF0420029000200390049021
:1013D00002A91848FEF79EFF40F6FF700290032016
:1013E00003900020049002A90D48FEF793FF4FF4EC
:1013F000704002900120039000200490059002A903
:101400000748FEF787FF002211460620FFF758F92C
:101410000620FFF745F907B000BD00003038024054
:10142000000C0240001002400008024000001110B1
:1014300000000240000402401CB500200090019012
:101440000E480F49086041F28730486000210C487F
:10145000816040F6B731C16000218161FFF774FD02
:1014600008B1FEF72BFF0020009001906946044868
:10147000FFF710FD08B1FEF721FF1CBD0010004072
:101480001400002000BFFEE700BFFEE77047704772
:101490007047000000B593B0302107A8FEF7CAFEE0
:1014A000142102A8FEF7C6FE00BF002001902448C8
:1014B000006840F08050224908600846006800F04B
:1014C0008050019000BF00BF00BF002001901D4868
:1014D000006840F480401B4908600846006800F43A
:1014E0008040019000BF00BF0120079000040890D9
:1014F00002200D9041050E9104210F91642110915D
:10150000022111910721129107A8FFF77DFA08B176
:10151000FEF7D4FE0F2002900220039000200490DA
:101520004FF4A05005904FF480500690032102A87C
:10153000FFF718F908B1FEF7C1FE13B000BD0000B7
:1015400040380240007000400548006840F47000D8
:10155000034908604FF00060014980390860704716
:1015600088ED00E010B50248FFF75EFD10BD0000F9
:101570005400002010B50248FFF756FD10BD0000D2
:101580001400002010B50268294B98420ED0B0F12B
:10159000804F0BD0274B984208D0274B984205D05C
:1015A000264B984202D0264B984203D122F070027B
:1015B0004B681A431E4B984220D0B0F1804F1DD08B
:1015C0001C4B98421AD01C4B984217D01B4B984288
:1015D00014D01B4B984211D01A4B98420ED01A4B84
:1015E00098420BD0194B984208D0194B984205D01D
:1015F000184B984202D0184B984203D122F4407203
:10160000CB681A4322F080034C6943EA040202606B
:101610008B68C3620B688362054B984202D0084B0B
:10162000984201D10B6903630123436110BD00009F
:10163000000001400004004000080040000C004091
:1016400000040140004001400044014000480140C6
:1016500000180040001C00400020004000BFFEE7D2
:1016600002480068C0F30220704700000CED00E063
:1016700010B5002804DB0A07130E054A135406E0D0
:101680000A07140E034A00F00F031B1FD45410BDA9
:1016900000E400E018ED00E002E008C8121F08C1F5
:1016A000002AFAD170477047002001E001C1121FE3
:1016B000002AFBD17047000000F016F84FF4704488
:1016C0000FE0A1B201220748FEF724FFFA20FEF73F
:1016D000F9FDA1B200220348FEF71CFFFA20FEF735
:1016E000F1FDEEE7000C024010B50620FEF7B6FF54
:1016F0000148FFF77CFC10BD14000020FEF722FF1C
:10170000FFF7C8FEFFF7C2FDFFF796FE4FF4967095
:1017100000F03EF8322000F00BF8FFF7CDFF00BFDD
:10172000FEE70000002001494862704700100040B9
:1017300000EB80014904090C014A11807047000048
:101740000200002010B50E48008848B901200C495D
:10175000088000200B4948620B48FFF733FC0DE07E
:1017600007480088012809D10648406A07490988C6
:10177000884200D210BD02200149088000BFF9E76D
:101780000000002000100040140000200200002093
:1017900000EB80014900014AD1627047001000400F
:1017A0000000000000000000010203040607080911
:1017B0000000000001020304D81700080000002008
:1017C0001400000098160008EC1700081400002010
:1017D00084040000A81600080000F40100000000C6
:0C17E00010000000010000000024F400D4
:040000050800018965
:00000001FF
